:100000000C9453000C947B000C947B000C947B00AC
:100010000C947B000C947B000C947B000C947B0074
:100020000C947B000C947B000C947B000C947B0064
:100030000C947B000C947B000C947B000C947B0054
:100040000C9466030C947B000C94D6030C94B003C0
:100050000C947B000C947B000C947B000C947B0034
:100060000C947B000C947B0000000000250028000D
:100070002B0000000000240027002A0004040404D0
:100080000404040402020202020203030303030342
:10009000010204081020408001020408102001021F
:1000A00004081020290511241FBECFEFD8E0DEBFC1
:1000B000CDBF11E0A0E0B1E0E2E8FFE002C00590B2
:1000C0000D92AA34B107D9F721E0AAE4B1E001C04A
:1000D0001D92A03FB207E1F710E0C3E5D0E004C0F5
:1000E0002197FE010E947805C235D107C9F70E9409
:1000F00008040C94BF070C940000CF93DF9390E0AA
:10010000FC01E057FF4F2491FC01E458FF4F84911C
:100110008823C1F090E0880F991FFC01EE58FF4F33
:10012000C591D491FC01E859FF4FA591B4919FB7B7
:10013000F8948881E22FE0958E2388838C91E823C0
:10014000EC939FBFDF91CF9108958E3008F08E50D1
:100150002091000190E4299F900111248770822B47
:1001600080937C0080917A00806480937A008091F3
:100170007A0086FDFCCF809178002091790090E094
:10018000922B08953FB7F89480914F0190915001C0
:10019000A0915101B091520126B5A89B05C02F3FF7
:1001A00019F00196A11DB11D3FBFBA2FA92F982F9D
:1001B0008827820F911DA11DB11DBC01CD0142E018
:1001C000660F771F881F991F4A95D1F708958F9260
:1001D0009F92AF92BF92CF92DF92EF92FF926B010C
:1001E0007C010E94C2004B015C01C114D104E104F6
:1001F000F104F1F00E94C200DC01CB0188199909D9
:10020000AA09BB09883E9340A105B10570F321E01E
:10021000C21AD108E108F10888EE880E83E0981E22
:10022000A11CB11CC114D104E104F10419F7DDCF04
:10023000FF90EF90DF90CF90BF90AF909F908F9006
:100240000895CF92DF92EF92FF920F931F93CF9377
:10025000DF936C017A018B01C0E0D0E0CE15DF05A1
:1002600081F0D8016D918D01D601ED91FC91019045
:10027000F081E02DC6010995892B11F02196EECF72
:100280007E01C701DF91CF911F910F91FF90EF90F9
:10029000DF90CF900895089580E090E00895FC01EC
:1002A000538D448D252F30E0842F90E0821B930BDB
:1002B000541710F0CF96089501970895FC01918D81
:1002C000828D981761F0828DDF01A80FB11D5D96B8
:1002D0008C91928D9F5F9F73928F90E008958FEF26
:1002E0009FEF0895FC01918D828D981731F0828DDA
:1002F000E80FF11D858D90E008958FEF9FEF089531
:10030000FC01918D228D892F90E0805C9F4F821B94
:1003100091098F739927089583E591E00E948001E8
:1003200021E0892B09F420E0822F0895FC01848DBF
:10033000DF01A80FB11DA35ABF4F2C91848D90E00F
:1003400001968F739927848FA689B7892C93A089EA
:10035000B1898C91837080648C93938D848D981374
:1003600006C00288F389E02D80818F7D8083089507
:10037000EF92FF920F931F93CF93DF93EC0181E0F5
:10038000888F9B8D8C8D981305C0E889F9898081B1
:1003900085FD26C0F62E0B8D10E00F5F1F4F0F73EB
:1003A0001127E02E8C8DE8120CC00FB607FCFACF97
:1003B000E889F989808185FFF5CFCE010E949601F9
:1003C000F1CF8B8DFE01E80FF11DE35AFF4FF08254
:1003D0009FB7F8940B8FEA89FB89808180620AC0FD
:1003E0009FB7F894EE89FF896083E889F989808155
:1003F0008370806480839FBF81E090E0DF91CF9124
:100400001F910F91FF90EF900895CF93DF93EC0130
:10041000888D8823C9F0EA89FB89808185FD05C024
:10042000A889B9898C9186FD0FC00FB607FCF5CF5E
:10043000808185FFF2CFA889B9898C9185FFEDCFA6
:10044000CE010E949601E7CFDF91CF91089580E021
:1004500090E0892B29F00E948C0181110C940000FE
:100460000895009769F0FC0101900020E9F73197A9
:10047000AF01481B590BBC0183E591E00C942101AD
:1004800080E090E008952F923F924F925F926F929A
:100490007F928F929F92AF92BF92CF92DF92EF9214
:1004A000FF920F931F93CF93DF93CDB7DEB7A4973F
:1004B0000FB6F894DEBF0FBECDBF4B015C01F42E2A
:1004C0009B01AC010E94B507882319F083E191E0FC
:1004D00027C024013501E89477F82FEF3FEF4FE76D
:1004E0005FE7C301B2010E94B50781110DC02FEF74
:1004F0003FEF4FE75FE7C301B2010E94EB0518161B
:100500001CF487E191E00CC02FEF3FEF4FE75FE471
:10051000C501B4010E94430718162CF48BE191E049
:100520000E943102B8C02FEF3FEF4FE75FECC501EB
:10053000B4010E94EB0587FDF1CF20E030E0A90176
:10054000C501B4010E94EB0587FF0BC06DE283E596
:1005500091E00E94B8013C01B7FAB094B7F8B094AA
:1005600002C0612C712C10E060E070E080E09FE33D
:10057000F11641F020E030E040E251E40E94F00545
:100580001F5FF6CFA50194010E947F054B015C011E
:100590000E9462066AA3C72ED82EE92E19A2262F22
:1005A000372F482F592F8E010F5D1F4F0BA31CA310
:1005B0009AE0292E312C412C512CCA01B901A201FB
:1005C00091010E945605605DF80162938F0121152B
:1005D00031054105510589F7CF010E9431028301A0
:1005E000080F191FFF2009F455C06AA17C2D8D2D1D
:1005F0009E2D0E9491069B01AC01C501B4010E9491
:100600007E054B015C016EE283E591E00E94B8013A
:10061000080F191F8AE0282E312C412C512C20E084
:1006200030E040E251E4C501B4010E9448074B01AB
:100630005C010E9462069B0140E050E019A2CBA041
:10064000DCA0762E3AA3642EE52ECA01B901A201E0
:1006500091010E945605605DF60162936F012115BC
:1006600031054105510589F7CF010E943102080F7C
:10067000191F672D7AA1862D9E2D0E9491069B0140
:10068000AC01C501B4010E947E054B015C01FA94E6
:10069000F110C5CFC801A4960FB6F894DEBF0FBE07
:1006A000CDBFDF91CF911F910F91FF90EF90DF9021
:1006B000CF90BF90AF909F908F907F906F905F9002
:1006C0004F903F902F9008950E94BA071F920F926B
:1006D0000FB60F9211242F933F938F939F93AF9355
:1006E000BF9380914B0190914C01A0914D01B0912D
:1006F0004E0130914A0123E0230F2D3720F401965B
:10070000A11DB11D05C026E8230F0296A11DB11D34
:1007100020934A0180934B0190934C01A0934D018B
:10072000B0934E0180914F0190915001A0915101E1
:10073000B09152010196A11DB11D80934F0190937C
:100740005001A0935101B0935201BF91AF919F917D
:100750008F913F912F910F900FBE0F901F90189582
:100760001F920F920FB60F9211242F933F934F9326
:100770005F936F937F938F939F93AF93BF93EF9309
:10078000FF9383E591E00E949601FF91EF91BF9165
:10079000AF919F918F917F916F915F914F913F9119
:1007A0002F910F900FBE0F901F9018951F920F92D0
:1007B0000FB60F9211242F938F939F93EF93FF9374
:1007C000E0916301F09164018081E0916901F09111
:1007D0006A0182FD12C0908180916C018F5F8F73DE
:1007E00020916D01821751F0E0916C01F0E0ED5A1B
:1007F000FE4F958F80936C0101C08081FF91EF9136
:100800009F918F912F910F900FBE0F901F90189571
:10081000789484B5826084BD84B5816084BD85B5DB
:10082000826085BD85B5816085BD80916E008160E7
:1008300080936E001092810080918100826080938D
:10084000810080918100816080938100809180008F
:100850008160809380008091B10084608093B100BA
:100860008091B00081608093B00080917A008460B4
:1008700080937A0080917A00826080937A008091E0
:100880007A00816080937A0080917A0080688093FA
:100890007A001092C100E0916301F091640182E05E
:1008A0008083E0915F01F09160011082E09161012D
:1008B000F09162018FEC808310926B01E0916701EF
:1008C000F091680186E08083E0916501F091660116
:1008D000808180618083E0916501F0916601808173
:1008E00088608083E0916501F09166018081806875
:1008F0008083E0916501F091660180818F7D808326
:1009000081E08093000183E10E947D0082E10E94EA
:100910007D0081E10E947D00C4E6D0E0C12CD12C95
:100920007601460157012601370183E10E94A500A7
:10093000BC01990F880B990B0E94930620E030E0D0
:1009400040EA5BE30E9448079B01AC01C301B2018E
:100950000E947F052B013C0182E10E94A500BC01A1
:10096000990F880B990B0E94930620E030E048EC29
:100970005DE30E9448079B01AC01C501B4010E94E0
:100980007F054B015C0181E10E94A500BC01990F2C
:10099000880B990B0E94930620E030E048EC5DE361
:1009A0000E9448079B01AC01C701B6010E947F0568
:1009B0006B017C016AE070E080E090E00E94E7005B
:1009C000219709F0B2CF8FE191E00E94310220E03F
:1009D00030E048EC52E4C301B2010E94F00542E06D
:1009E0000E9443028AE291E00E94310280E391E09A
:1009F0000E94310220E030E048EC52E4C501B4012D
:100A00000E94F00542E00E94430289E391E00E94C7
:100A100031028DE391E00E94310220E030E048ECA9
:100A200052E4C701B6010E94F00542E00E94430271
:100A300089E391E00E94310286E491E00E94310254
:100A400068EE73E080E090E00E94E7000E942702D9
:100A500063CFE3E5F1E01382128288EE93E0A0E039
:100A6000B0E084839583A683B78385E091E091838A
:100A7000808385EC90E09587848784EC90E097876D
:100A8000868780EC90E0918B808B81EC90E0938B5B
:100A9000828B82EC90E0958B848B86EC90E0978B38
:100AA000868B118E128E138E148E0895A1E21A2E4B
:100AB000AA1BBB1BFD010DC0AA1FBB1FEE1FFF1F02
:100AC000A217B307E407F50720F0A21BB30BE40B52
:100AD000F50B661F771F881F991F1A9469F7609599
:100AE0007095809590959B01AC01BD01CF01089553
:100AF000EE0FFF1F0590F491E02D09945058BB278D
:100B0000AA270E9496050C9409070E94FB0638F05C
:100B10000E94020720F039F49F3F19F426F40C9448
:100B2000F8060EF4E095E7FB0C94F206E92F0E941C
:100B30001A0758F3BA17620773078407950720F05E
:100B400079F4A6F50C943C070EF4E0950B2EBA2F21
:100B5000A02D0B01B90190010C01CA01A0011124C3
:100B6000FF27591B99F0593F50F4503E68F11A166F
:100B7000F040A22F232F342F4427585FF3CF469500
:100B800037952795A795F0405395C9F77EF41F1622
:100B9000BA0B620B730B840BBAF09150A1F0FF0FEC
:100BA000BB1F661F771F881FC2F70EC0BA0F621FD8
:100BB000731F841F48F4879577956795B795F795C8
:100BC0009E3F08F0B0CF9395880F08F09927EE0F5D
:100BD0009795879508950E94CE0608F481E00895C0
:100BE0000E9404060C9409070E94020758F00E9414
:100BF000FB0640F029F45F3F29F00C94F2065111F6
:100C00000C943D070C94F8060E941A0768F3992388
:100C1000B1F3552391F3951B550BBB27AA276217F8
:100C20007307840738F09F5F5F4F220F331F441F05
:100C3000AA1FA9F335D00E2E3AF0E0E832D0915039
:100C40005040E695001CCAF72BD0FE2F29D0660F26
:100C5000771F881FBB1F261737074807AB07B0E869
:100C600009F0BB0B802DBF01FF2793585F4F3AF06F
:100C70009E3F510578F00C94F2060C943D075F3FBF
:100C8000E4F3983ED4F3869577956795B795F795F5
:100C90009F5FC9F7880F911D9695879597F90895DD
:100CA000E1E0660F771F881FBB1F62177307840779
:100CB000BA0720F0621B730B840BBA0BEE1F88F788
:100CC000E09508950E94220788F09F5798F0B92F69
:100CD0009927B751B0F0E1F0660F771F881F991F71
:100CE0001AF0BA95C9F714C0B13091F00E943C07D0
:100CF000B1E008950C943C07672F782F8827B85FE0
:100D000039F0B93FCCF3869577956795B395D9F7C8
:100D10003EF490958095709561957F4F8F4F9F4FD2
:100D20000895E89409C097FB3EF4909580957095DE
:100D300061957F4F8F4F9F4F9923A9F0F92F96E927
:100D4000BB279395F695879577956795B795F1119C
:100D5000F8CFFAF4BB0F11F460FF1BC06F5F7F4F39
:100D60008F4F9F4F16C0882311F096E911C077234B
:100D700021F09EE8872F762F05C0662371F096E854
:100D8000862F70E060E02AF09A95660F771F881F23
:100D9000DAF7880F9695879597F90895990F0008C7
:100DA000550FAA0BE0E8FEEF16161706E807F9073D
:100DB000C0F012161306E407F50798F0621B730BD8
:100DC000840B950B39F40A2661F0232B242B252B59
:100DD00021F408950A2609F4A140A6958FEF811DFC
:100DE000811D089597F99F6780E870E060E008959D
:100DF0009FEF80EC089500240A9416161706180633
:100E00000906089500240A9412161306140605060E
:100E10000895092E0394000C11F4882352F0BB0F9F
:100E200040F4BF2B11F460FF04C06F5F7F4F8F4F02
:100E30009F4F089557FD9058440F551F59F05F3F3D
:100E400071F04795880F97FB991F61F09F3F79F0EC
:100E500087950895121613061406551FF2CF46956E
:100E6000F1DF08C0161617061806991FF1CF8695F0
:100E70007105610508940895E894BB2766277727D4
:100E8000CB0197F908950E94CE0608F48FEF0895DC
:100E90000E945B070C9409070E94FB0638F00E9431
:100EA000020720F0952311F00C94F2060C94F8063A
:100EB00011240C943D070E941A0770F3959FC1F30B
:100EC000950F50E0551F629FF001729FBB27F00DF8
:100ED000B11D639FAA27F00DB11DAA1F649F66274D
:100EE000B00DA11D661F829F2227B00DA11D621F9C
:100EF000739FB00DA11D621F839FA00D611D221F56
:100F0000749F3327A00D611D231F849F600D211D39
:100F1000822F762F6A2F11249F5750409AF0F1F0BC
:100F200088234AF0EE0FFF1FBB1F661F771F881F25
:100F300091505040A9F79E3F510580F00C94F20665
:100F40000C943D075F3FE4F3983ED4F38695779584
:100F50006795B795F795E7959F5FC1F7FE2B880FCB
:100F6000911D9695879597F908950E94CE06880B56
:100F7000990B089581E090E0F8940C94BF07F894E1
:020F8000FFCFA1
:100F82000100000000B80121014F01050280015E4D
:100F92000172016E616E00696E66006F76660020F6
:100FA200092056283529203D20005B565D2020006F
:100FB200204C283429203D200025202000204828CC
:0A0FC2003329203D20000D0A000035
:00000001FF
